:100000000C9444000C946C000C946C000C946C00E8
:100010000C946C000C946C000C946C000C946C00B0
:100020000C946C000C946C000C946C000C946C00A0
:100030000C946C000C946C000C946C000C946C0090
:100040000C9449020C946C000C9417020C94F1016E
:100050000C946C000C946C000C946C000C946C0070
:100060000C946C000C946C0005A84CCDB2D44EB925
:100070003836A9020C50B9918688083CA6AAAA2A4B
:10008000BE000000803F710411241FBECFEFD8E0F6
:10009000DEBFCDBF11E0A0E0B1E0E8E7FFE002C0C5
:1000A00005900D92A432B107D9F721E0A4E2B1E0A6
:1000B00001C01D92A43DB207E1F710E0C4E4D0E016
:1000C00004C02197FE010E94B407C334D107C9F7C9
:1000D0000E9493020C94BA070C940000AF92BF9256
:1000E000CF92DF92EF92FF920F931F93CF93DF9304
:1000F0006C017B018B01040F151FEB015E01AE1833
:10010000BF08C017D10759F06991D601ED91FC9154
:100110000190F081E02DC6010995892B79F7C50181
:10012000DF91CF911F910F91FF90EF90DF90CF90D3
:10013000BF90AF900895FC01538D448D252F30E082
:10014000842F90E0821B930B541710F0CF960895E4
:1001500001970895FC01918D828D981761F0A28D11
:10016000AE0FBF2FB11D5D968C91928D9F5F9F73D7
:10017000928F90E008958FEF9FEF0895FC01918D8D
:10018000828D981731F0828DE80FF11D858D90E0FA
:1001900008958FEF9FEF0895FC01918D228D892F97
:1001A00090E0805C9F4F821B91098F73992708957F
:1001B00087E391E00E94CC0021E0892B09F420E044
:1001C000822F089580E090E0892B29F00E94D800CA
:1001D00081110C9400000895FC01A48DA80FB92F83
:1001E000B11DA35ABF4F2C91848D90E001968F735F
:1001F0009927848FA689B7892C93A089B1898C917E
:10020000837080648C93938D848D981306C00288CC
:10021000F389E02D80818F7D80830895EF92FF9296
:100220000F931F93CF93DF93EC0181E0888F9B8D19
:100230008C8D98131AC0E889F989808185FF15C0D3
:100240009FB7F894EE89FF896083E889F9898081F6
:100250008370806480839FBF81E090E0DF91CF91C5
:100260001F910F91FF90EF900895F62E0B8D10E0E7
:100270000F5F1F4F0F731127E02E8C8D8E110CC056
:100280000FB607FCFACFE889F989808185FFF5CFA1
:10029000CE010E94EC00F1CFEB8DEC0FFD2FF11D94
:1002A000E35AFF4FF0829FB7F8940B8FEA89FB89DE
:1002B00080818062CFCFCF93DF93EC01888D88233C
:1002C000B9F0AA89BB89E889F9898C9185FD03C0B9
:1002D000808186FD0DC00FB607FCF7CF8C9185FF9E
:1002E000F2CF808185FFEDCFCE010E94EC00E9CFF7
:1002F000DF91CF9108953FB7F894809129019091B3
:100300002A01A0912B01B0912C0126B5A89B05C014
:100310002F3F19F00196A11DB11D3FBFBA2FA92F84
:10032000982F8827BC01CD01620F711D811D911D81
:1003300042E0660F771F881F991F4A95D1F70895ED
:10034000FC0101900020E9F73197AF01481B590BE0
:10035000BC0187E391E00C946E008F929F92AF9264
:10036000BF920F931F93CF93DF93CDB7DEB7A197C3
:100370000FB6F894DEBF0FBECDBF19A2423008F40D
:100380004AE08E010F5D1F4F842E912CB12CA12CC1
:10039000A50194010E947E07E62FB901CA01EA3047
:1003A000F4F4E05DD801EE938D01232B242B252B53
:1003B00079F790E080E0109719F0CD010E94A0013C
:1003C000A1960FB6F894DEBF0FBECDBFDF91CF91DF
:1003D0001F910F91BF90AF909F908F900895E95C0F
:1003E000E1CF1F920F920FB60F9211242F933F93DC
:1003F0004F935F936F937F938F939F93AF93BF932D
:10040000EF93FF9387E391E00E94EC00FF91EF915F
:10041000BF91AF919F918F917F916F915F914F911C
:100420003F912F910F900FBE0F901F9018951F9224
:100430000F920FB60F9211242F938F939F93EF93E8
:10044000FF93E0914701F09148018081E0914D01D7
:10045000F0914E0182FD1BC09081809150018F5F11
:100460008F7320915101821741F0E0915001F0E02B
:10047000E95CFE4F958F80935001FF91EF919F9122
:100480008F912F910F900FBE0F901F901895808124
:10049000F4CF1F920F920FB60F9211242F933F9318
:1004A0008F939F93AF93BF938091250190912601E5
:1004B000A0912701B09128013091240123E0230F5E
:1004C0002D3758F50196A11DB11D2093240180936D
:1004D000250190932601A0932701B09328018091D4
:1004E000290190912A01A0912B01B0912C01019634
:1004F000A11DB11D8093290190932A01A0932B0186
:10050000B0932C01BF91AF919F918F913F912F910B
:100510000F900FBE0F901F90189526E8230F02969C
:10052000A11DB11DD2CF789484B5826084BD84B5FD
:10053000816084BD85B5826085BD85B5816085BDDE
:1005400080916E00816080936E0010928100809196
:10055000810082608093810080918100816080931E
:100560008100809180008160809380008091B10043
:1005700084608093B1008091B00081608093B0006E
:1005800080917A00846080937A0080917A00826002
:1005900080937A0080917A00816080937A008091C4
:1005A0007A00806880937A001092C100E091470140
:1005B000F091480182E08083E0914301F091440191
:1005C0001082E0914501F091460180E18083109214
:1005D0004F01E0914B01F0914C0186E08083E09166
:1005E0004901F0914A01808180618083E091490155
:1005F000F0914A01808188608083E0914901F09107
:100600004A01808180688083E0914901F0914A012C
:1006100080818F7D808303E010E0C0E0D0E00E9405
:100620007B010E94B10520E034E244E759E40E94D6
:1006300010056B017C012BED3FE049E451E40E9481
:1006400068060E94D5064B015C0123E634E14DE9C2
:1006500053E4C701B6010E9468060E94D5062B012B
:100660003C012DED3EE74CE353E4C701B6010E9487
:1006700068060E94D5066B017C012DEC3CEC4CE435
:100680005EE3C301B2010E946806A50194010E94C5
:100690009F04A70196010E949F044B015C0122E682
:1006A00030E148E75FE3609133017091340180915C
:1006B0003501909136010E9468066B017C0126EBA2
:1006C00033EF4DE75CE3C501B4010E9468069B016E
:1006D000AC01C701B6010E949F046B017C0126EBAF
:1006E00033EF4DE75CE360912F0170913001809111
:1006F0003101909132010E9468069B01AC01C70153
:10070000B6010E949F046B017C010E947B012B01BA
:100710003C010E947B016419750986099709683EAE
:10072000734081059105A8F380922F0190923001CA
:10073000A0923101B0923201C0923301D0923401C3
:10074000E0923501F092360180912D0190912E01B9
:10075000B8010E946A07892BE1F482E191E00E94CE
:10076000A001A7019601C701B6010E949F046B0179
:100770007C014B015C01AC019B010E94DD068823DA
:10078000E1F084E191E00E94A00180E291E00E940A
:10079000A00180912D0190912E01019690932E0140
:1007A00080932D01209709F43ACF0E94D800882326
:1007B00009F435CF0E94000032CF26013701E894BA
:1007C00077F82FEF3FEF4FE75FE7C301B2010E94D9
:1007D000DD0681110DC02FEF3FEF4FE75FE7C3014B
:1007E000B2010E940B0518161CF488E191E0CBCFF2
:1007F0002FEF3FEF4FE75FE4C701B6010E946306AA
:1008000018161CF48CE191E0BECF2FEF3FEF4FE7BD
:100810005FECC701B6010E940B0587FDF3CF20E016
:1008200030E0A901C701B6010E940B0587FF0BC08C
:100830006DE287E391E00E940E0146015701B7FA8D
:10084000B094B7F8B0942AE037ED43EA5BE3C50112
:10085000B4010E949F044B015C010E9482056B0160
:100860007C010E94B1059B01AC01C501B4010E944D
:100870009E044B015C014AE0C701B6010E94AD0134
:100880006EE287E391E00E940E0120E030E040E25A
:1008900051E4C501B4010E9468064B015C010E944D
:1008A00082056B01F12CE12C4AE0C701B6010E94E0
:1008B000AD01C701B6010E94B1059B01AC01C501A4
:1008C000B4010E949E0420E030E040E251E40E9426
:1008D00068060E94820590E080E04AE00E94AD0137
:1008E00054CFE7E3F1E01382128288EE93E0A0E0B8
:1008F000B0E084839583A683B78384E091E09183FD
:10090000808385EC90E09587848784EC90E09787DE
:10091000868780EC90E0918B808B81EC90E0938BCC
:10092000828B82EC90E0958B848B86EC90E0978BA9
:10093000868B118E128E138E148E08955058BB27FD
:10094000AA270E94B6040C9429060E941B0638F0C0
:100950000E94220620F039F49F3F19F426F40C94EB
:1009600018060EF4E095E7FB0C941206E92F0E949E
:100970003A0658F3BA17620773078407950720F001
:1009800079F4A6F50C945C060EF4E0950B2EBA2FC4
:10099000A02D0B01B90190010C01CA01A001112485
:1009A000FF27591B99F0593F50F4503E68F11A1631
:1009B000F040A22F232F342F4427585FF3CF4695C2
:1009C00037952795A795F0405395C9F77EF41F16E4
:1009D000BA0B620B730B840BBAF09150A1F0FF0FAE
:1009E000BB1F661F771F881FC2F70EC0BA0F621F9A
:1009F000731F841F48F4879577956795B795F7958A
:100A00009E3F08F0B0CF9395880F08F09927EE0F1E
:100A10009795879508950E94EE0508F481E0089562
:100A20000E9424050C9429060E94220658F00E9478
:100A30001B0640F029F45F3F29F00C941206511177
:100A40000C945D060C9418060E943A0668F39923EC
:100A5000B1F3552391F3951B550BBB27AA276217BA
:100A60007307840738F09F5F5F4F220F331F441FC7
:100A7000AA1FA9F335D00E2E3AF0E0E832D09150FB
:100A80005040E695001CCAF72BD0FE2F29D0660FE8
:100A9000771F881FBB1F261737074807AB07B0E82B
:100AA00009F0BB0B802DBF01FF2793585F4F3AF031
:100AB0009E3F510578F00C9412060C945D065F3F42
:100AC000E4F3983ED4F3869577956795B795F795B7
:100AD0009F5FC9F7880F911D9695879597F908959F
:100AE000E1E0660F771F881FBB1F6217730784073B
:100AF000BA0720F0621B730B840BBA0BEE1F88F74A
:100B0000E09508950E94420688F09F5798F0B92F0B
:100B10009927B751B0F0E1F0660F771F881F991F32
:100B20001AF0BA95C9F714C0B13091F00E945C0672
:100B3000B1E008950C945C06672F782F8827B85F82
:100B400039F0B93FCCF3869577956795B395D9F78A
:100B50003EF490958095709561957F4F8F4F9F4F94
:100B60000895E89409C097FB3EF4909580957095A0
:100B700061957F4F8F4F9F4F9923A9F0F92F96E9E9
:100B8000BB279395F695879577956795B795F1115E
:100B9000F8CFFAF4BB0F11F460FF1BC06F5F7F4FFB
:100BA0008F4F9F4F16C0882311F096E911C077230D
:100BB00021F09EE8872F762F05C0662371F096E816
:100BC000862F70E060E02AF09A95660F771F881FE5
:100BD000DAF7880F9695879597F90895990F000889
:100BE000550FAA0BE0E8FEEF16161706E807F907FF
:100BF000C0F012161306E407F50798F0621B730B9A
:100C0000840B950B39F40A2661F0232B242B252B1A
:100C100021F408950A2609F4A140A6958FEF811DBD
:100C2000811D089597F99F6780E870E060E008955E
:100C30009FEF80EC089500240A94161617061806F4
:100C40000906089500240A941216130614060506D0
:100C50000895092E0394000C11F4882352F0BB0F61
:100C600040F4BF2B11F460FF04C06F5F7F4F8F4FC4
:100C70009F4F089557FD9058440F551F59F05F3FFF
:100C800071F04795880F97FB991F61F09F3F79F0AE
:100C900087950895121613061406551FF2CF469530
:100CA000F1DF08C0161617061806991FF1CF8695B2
:100CB0007105610508940895E894BB276627772796
:100CC000CB0197F908950E94EE0508F48FEF08957F
:100CD0000E947B060C9429060E941B0638F00E9495
:100CE000220620F0952311F00C9412060C9418069D
:100CF00011240C945D060E943A0670F3959FC1F38F
:100D0000950F50E0551F629FF001729FBB27F00DB9
:100D1000B11D639FAA27F00DB11DAA1F649F66270E
:100D2000B00DA11D661F829F2227B00DA11D621F5D
:100D3000739FB00DA11D621F839FA00D611D221F17
:100D4000749F3327A00D611D231F849F600D211DFB
:100D5000822F762F6A2F11249F5750409AF0F1F07E
:100D600088234AF0EE0FFF1FBB1F661F771F881FE7
:100D700091505040A9F79E3F510580F00C94120607
:100D80000C945D065F3FE4F3983ED4F38695779527
:100D90006795B795F795E7959F5FC1F7FE2B880F8D
:100DA000911D9695879597F908959F930E94E40663
:100DB0000F9007FCEE5F0C940D070E94EE05880B68
:100DC000990B08950C9418060E944206D8F3E894F3
:100DD000E0E0BB279F57F0F02AED3FE049EC06C06A
:100DE000EE0FBB0F661F771F881F28F0B23A62070D
:100DF0007307840728F0B25A620B730B840BE395D8
:100E00009A9572F7803830F49A95BB0F661F771F5A
:100E1000881FD2F790480C942307EF93E0FF07C098
:100E2000A2EA2AED3FE049EC5FEB0E94B6040E9483
:100E300029060F90039401FC9058E8E6F0E00C942A
:100E40002F079F3F31F0915020F487957795679554
:100E5000B795880F911D9695879597F908959F935B
:100E60008F937F936F93FF93EF939B01AC010E944D
:100E70006806EF91FF910E9443072F913F914F9198
:100E80005F910C946806DF93CF931F930F93FF92AB
:100E9000EF92DF927B018C01689406C0DA2EEF019D
:100EA0000E947B06FE01E894A5912591359145911C
:100EB0005591A6F3EF010E94B604FE019701A80127
:100EC000DA9469F7DF90EF90FF900F911F91CF9127
:100ED000DF91089597FB072E16F4009407D077FD55
:100EE00009D00E94A00707FC05D03EF4909581959B
:100EF0009F4F0895709561957F4F0895A1E21A2E36
:100F0000AA1BBB1BFD010DC0AA1FBB1FEE1FFF1FAD
:100F1000A217B307E407F50720F0A21BB30BE40BFD
:100F2000F50B661F771F881F991F1A9469F7609544
:100F30007095809590959B01AC01BD01CF010895FE
:100F4000AA1BBB1B51E107C0AA1FBB1FA617B707EF
:100F500010F0A61BB70B881F991F5A95A9F780950B
:100F60009095BC01CD010895EE0FFF1F0590F491FF
:080F7000E02D0994F894FFCF75
:100F7800000000000E016E009B005B01CC00AA007F
:100F8800BE0020006E616E00696E66006F766600B6
:040F98000D0A00003E
:00000001FF
