:020000040000FA
:100000000C9435000C945D000C945D000C945D0024
:100010000C945D000C945D000C945D000C945D00EC
:100020000C945D000C945D000C945D000C945D00DC
:100030000C945D000C945D000C945D000C945D00CC
:100040000C943A020C945D000C9408020C94E201AA
:100050000C945D000C945D000C945D000C945D00AC
:100060000C945D000C945D004D0411241FBECFEF75
:10007000D8E0DEBFCDBF11E0A0E0B1E0E0E1FEE0FE
:1000800002C005900D92A432B107D9F721E0A4E295
:10009000B1E001C01D92A43DB207E1F710E0C5E355
:1000A000D0E004C02197FE010E940007C433D107AD
:1000B000C9F70E9484020C9406070C940000AF92CA
:1000C000BF92CF92DF92EF92FF920F931F93CF9345
:1000D000DF936C017B018B01040F151FEB015E01A7
:1000E000AE18BF08C017D10759F06991D601ED913C
:1000F000FC910190F081E02DC6010995892B79F7DB
:10010000C501DF91CF911F910F91FF90EF90DF908C
:10011000CF90BF90AF900895FC01538D448D252F53
:1001200030E0842F90E0821B930B541710F0CF9691
:10013000089501970895FC01918D828D981761F0C3
:10014000A28DAE0FBF2FB11D5D968C91928D9F5FDA
:100150009F73928F90E008958FEF9FEF0895FC01B9
:10016000918D828D981731F0828DE80FF11D858D6C
:1001700090E008958FEF9FEF0895FC01918D228DFF
:10018000892F90E0805C9F4F821B91098F73992784
:10019000089587E391E00E94BD0021E0892B09F4D6
:1001A00020E0822F089580E090E0892B29F00E94C2
:1001B000C90081110C9400000895FC01A48DA80FC2
:1001C000B92FB11DA35ABF4F2C91848D90E0019699
:1001D0008F739927848FA689B7892C93A089B189B9
:1001E0008C91837080648C93938D848D981306C05A
:1001F0000288F389E02D80818F7D80830895EF92BE
:10020000FF920F931F93CF93DF93EC0181E0888FD0
:100210009B8D8C8D98131AC0E889F989808185FFA0
:1002200015C09FB7F894EE89FF896083E889F98942
:1002300080818370806480839FBF81E090E0DF9144
:10024000CF911F910F91FF90EF900895F62E0B8D97
:1002500010E00F5F1F4F0F731127E02E8C8D8E1152
:100260000CC00FB607FCFACFE889F989808185FFB9
:10027000F5CFCE010E94DD00F1CFEB8DEC0FFD2F0D
:10028000F11DE35AFF4FF0829FB7F8940B8FEA8974
:10029000FB8980818062CFCFCF93DF93EC01888D83
:1002A0008823B9F0AA89BB89E889F9898C9185FDF1
:1002B00003C0808186FD0DC00FB607FCF7CF8C917F
:1002C00085FFF2CF808185FFEDCFCE010E94DD005A
:1002D000E9CFDF91CF9108953FB7F894809129013C
:1002E00090912A01A0912B01B0912C0126B5A89BD9
:1002F00005C02F3F19F00196A11DB11D3FBFBA2FB8
:10030000A92F982F8827BC01CD01620F711D811D77
:10031000911D42E0660F771F881F991F4A95D1F7FC
:100320000895FC0101900020E9F73197AF01481BC7
:10033000590BBC0187E391E00C945F008F929F9270
:10034000AF92BF920F931F93CF93DF93CDB7DEB7DA
:10035000A1970FB6F894DEBF0FBECDBF19A24230F1
:1003600008F44AE08E010F5D1F4F842E912CB12CB2
:10037000A12CA50194010E94CA06E62FB901CA0169
:10038000EA30F4F4E05DD801EE938D01232B242BA9
:10039000252B79F790E080E0109719F0CD010E94AD
:1003A0009101A1960FB6F894DEBF0FBECDBFDF91CD
:1003B000CF911F910F91BF90AF909F908F90089514
:1003C000E95CE1CF1F920F920FB60F9211242F9389
:1003D0003F934F935F936F937F938F939F93AF93CD
:1003E000BF93EF93FF9387E391E00E94DD00FF91BD
:1003F000EF91BF91AF919F918F917F916F915F919D
:100400004F913F912F910F900FBE0F901F90189515
:100410001F920F920FB60F9211242F938F939F93D9
:10042000EF93FF93E0914701F09148018081E091C3
:100430004D01F0914E0182FD1BC0908180915001D1
:100440008F5F8F7320915101821741F0E09150012D
:10045000F0E0E95CFE4F958F80935001FF91EF91A2
:100460009F918F912F910F900FBE0F901F90189515
:100470008081F4CF1F920F920FB60F9211242F9309
:100480003F938F939F93AF93BF938091250190915A
:100490002601A0912701B09128013091240123E089
:1004A000230F2D3758F50196A11DB11D209324016E
:1004B0008093250190932601A0932701B0932801F2
:1004C0008091290190912A01A0912B01B0912C01DA
:1004D0000196A11DB11D8093290190932A01A0933B
:1004E0002B01B0932C01BF91AF919F918F913F91C0
:1004F0002F910F900FBE0F901F90189526E8230F95
:100500000296A11DB11DD2CF789484B5826084BDBE
:1005100084B5816084BD85B5826085BD85B5816007
:1005200085BD80916E00816080936E001092810085
:100530008091810082608093810080918100816040
:100540008093810080918000816080938000809101
:10055000B10084608093B1008091B000816080938D
:10056000B00080917A00846080937A0080917A0054
:10057000826080937A0080917A00816080937A0013
:1005800080917A00806880937A001092C100E09197
:100590004701F091480182E08083E0914301F091AE
:1005A00044011082E0914501F091460180E1808391
:1005B00010924F01E0914B01F0914C0186E0808355
:1005C000E0914901F0914A01808180618083E0914E
:1005D0004901F0914A01808188608083E09149015E
:1005E000F0914A01808180688083E0914901F09117
:1005F0004A0180818F7D808380E4382E03E010E003
:10060000C0E0D0E030927C0080917A0080648093DA
:100610007A0080917A0086FDFCCF8091780060910D
:100620007900762F682F072E000C880B990B0E94FB
:100630008F0520E030EC4FE754E40E94EC0420E00A
:1006400030E040EA50E40E9444064B015C0122E69F
:1006500030E148E75FE360913301709134018091AC
:100660003501909136010E9444066B017C0126EB16
:1006700033EF4DE75CE3C501B4010E9444069B01E2
:10068000AC01C701B6010E947B046B017C0126EB23
:1006900033EF4DE75CE360912F0170913001809161
:1006A0003101909132010E9444069B01AC01C701C7
:1006B000B6010E947B046B017C010E946C012B013E
:1006C0003C010E946C016419750986099709683E0E
:1006D000734081059105A8F380922F01909230011B
:1006E000A0923101B0923201C0923301D092340114
:1006F000E0923501F092360180912D0190912E010A
:10070000B8010E94B606892B01F582E191E00E94B2
:100710009101A7019601C701B6010E947B046B01FC
:100720007C014B015C01AC019B010E94B106882356
:1007300001F184E191E00E94910180E291E00E9448
:10074000910110922E0110922D0180912D01909116
:100750002E01019690932E0180932D01209709F48C
:1007600051CF0E94C900882309F44CCF0E94000099
:1007700049CF26013701E89477F82FEF3FEF4FE795
:100780005FE7C301B2010E94B10681110DC02FEFD6
:100790003FEF4FE75FE7C301B2010E94E70418167D
:1007A0001CF488E191E0C7CF2FEF3FEF4FE75FE404
:1007B000C701B6010E943F0618161CF48CE191E0B7
:1007C000BACF2FEF3FEF4FE75FECC701B6010E94B2
:1007D000E70487FDF3CF20E030E0A901C701B601AF
:1007E0000E94E70487FF0BC06DE287E391E00E945F
:1007F000FF0046015701B7FAB094B7F8B0942AE069
:1008000037ED43EA5BE3C501B4010E947B044B0171
:100810005C010E945E056B017C010E948D059B01BD
:10082000AC01C501B4010E947A044B015C014AE0AD
:10083000C701B6010E949E016EE287E391E00E942B
:10084000FF0020E030E040E251E4C501B4010E9425
:1008500044064B015C010E945E056B01F12CE12C0A
:100860004AE0C701B6010E949E01C701B6010E947D
:100870008D059B01AC01C501B4010E947A0420E002
:1008800030E040E251E40E9444060E945E0590E0A0
:1008900080E04AE00E949E0150CFE7E3F1E013823E
:1008A000128288EE93E0A0E0B0E084839583A68373
:1008B000B78384E091E09183808385EC90E0958715
:1008C000848784EC90E09787868780EC90E0918B1A
:1008D000808B81EC90E0938B828B82EC90E0958B07
:1008E000848B86EC90E0978B868B118E128E138E04
:1008F000148E08955058BB27AA270E9492040C9486
:1009000005060E94F70538F00E94FE0520F039F434
:100910009F3F19F426F40C94F4050EF4E095E7FBE0
:100920000C94EE05E92F0E94160658F3BA176207D9
:1009300073078407950720F079F4A6F50C94380620
:100940000EF4E0950B2EBA2FA02D0B01B9019001EA
:100950000C01CA01A0011124FF27591B99F0593F2E
:1009600050F4503E68F11A16F040A22F232F342F76
:100970004427585FF3CF469537952795A795F040C4
:100980005395C9F77EF41F16BA0B620B730B840BD9
:10099000BAF09150A1F0FF0FBB1F661F771F881F91
:1009A000C2F70EC0BA0F621F731F841F48F48795E9
:1009B00077956795B795F7959E3F08F0B0CF9395DB
:1009C000880F08F09927EE0F9795879508950E9454
:1009D000CA0508F481E008950E9400050C940506FC
:1009E0000E94FE0558F00E94F70540F029F45F3F91
:1009F00029F00C94EE0551110C9439060C94F40571
:100A00000E94160668F39923B1F3552391F3951BC1
:100A1000550BBB27AA2762177307840738F09F5F1F
:100A20005F4F220F331F441FAA1FA9F335D00E2E8C
:100A30003AF0E0E832D091505040E695001CCAF7F9
:100A40002BD0FE2F29D0660F771F881FBB1F2617BC
:100A500037074807AB07B0E809F0BB0B802DBF0193
:100A6000FF2793585F4F3AF09E3F510578F00C9462
:100A7000EE050C9439065F3FE4F3983ED4F3869577
:100A800077956795B795F7959F5FC9F7880F911D83
:100A90009695879597F90895E1E0660F771F881F6F
:100AA000BB1F621773078407BA0720F0621B730B22
:100AB000840BBA0BEE1F88F7E09508950E941E067E
:100AC00088F09F5798F0B92F9927B751B0F0E1F00F
:100AD000660F771F881F991F1AF0BA95C9F714C0BF
:100AE000B13091F00E943806B1E008950C943806B8
:100AF000672F782F8827B85F39F0B93FCCF38695F8
:100B000077956795B395D9F73EF490958095709554
:100B100061957F4F8F4F9F4F0895E89409C097FBD1
:100B20003EF490958095709561957F4F8F4F9F4FC4
:100B30009923A9F0F92F96E9BB279395F695879508
:100B400077956795B795F111F8CFFAF4BB0F11F4CB
:100B500060FF1BC06F5F7F4F8F4F9F4F16C0882372
:100B600011F096E911C0772321F09EE8872F762FA8
:100B700005C0662371F096E8862F70E060E02AF0E9
:100B80009A95660F771F881FDAF7880F96958795D5
:100B900097F90895990F0008550FAA0BE0E8FEEFAA
:100BA00016161706E807F907C0F012161306E40731
:100BB000F50798F0621B730B840B950B39F40A262A
:100BC00061F0232B242B252B21F408950A2609F408
:100BD000A140A6958FEF811D811D089597F99F670C
:100BE00080E870E060E008959FEF80EC08950024B5
:100BF0000A941616170618060906089500240A9482
:100C000012161306140605060895092E0394000C07
:100C100011F4882352F0BB0F40F4BF2B11F460FF96
:100C200004C06F5F7F4F8F4F9F4F089557FD9058BF
:100C3000440F551F59F05F3F71F04795880F97FBA0
:100C4000991F61F09F3F79F087950895121613065A
:100C50001406551FF2CF4695F1DF08C01616170689
:100C60001806991FF1CF86957105610508940895BE
:100C7000E894BB2766277727CB0197F908950E9450
:100C8000CA0508F48FEF08950E9457060C940506D4
:100C90000E94F70538F00E94FE0520F0952311F020
:100CA0000C94EE050C94F40511240C9439060E9462
:100CB000160670F3959FC1F3950F50E0551F629F84
:100CC000F001729FBB27F00DB11D639FAA27F00DA5
:100CD000B11DAA1F649F6627B00DA11D661F829FCC
:100CE0002227B00DA11D621F739FB00DA11D621FB1
:100CF000839FA00D611D221F749F3327A00D611DCE
:100D0000231F849F600D211D822F762F6A2F1124AF
:100D10009F5750409AF0F1F088234AF0EE0FFF1FE2
:100D2000BB1F661F771F881F91505040A9F79E3F39
:100D3000510580F00C94EE050C9439065F3FE4F306
:100D4000983ED4F3869577956795B795F795E7958F
:100D50009F5FC1F7FE2B880F911D9695879597F998
:100D600008950E94CA05880B990B089597FB072EDA
:100D700016F4009407D077FD09D00E94EC0607FC1A
:100D800005D03EF4909581959F4F0895709561959B
:100D90007F4F0895A1E21A2EAA1BBB1BFD010DC0B7
:100DA000AA1FBB1FEE1FFF1FA217B307E407F5071B
:100DB00020F0A21BB30BE40BF50B661F771F881FF7
:100DC000991F1A9469F760957095809590959B018D
:100DD000AC01BD01CF010895AA1BBB1B51E107C0A7
:100DE000AA1FBB1FA617B70710F0A61BB70B881FBB
:100DF000991F5A95A9F780959095BC01CD0108954A
:100E0000EE0FFF1F0590F491E02D0994F894FFCFA9
:100E100000000000FF005F008C004C01BD009B0043
:100E2000AF0020006E616E00696E66006F7666002E
:040E30000D0A0000A7
:107E0000112484B714BE81FFF0D085E080938100F7
:107E100082E08093C00088E18093C10086E0809377
:107E2000C20080E18093C4008EE0C9D0259A86E02C
:107E300020E33CEF91E0309385002093840096BBD3
:107E4000B09BFECF1D9AA8958150A9F7CC24DD24C4
:107E500088248394B5E0AB2EA1E19A2EF3E0BF2EE7
:107E6000A2D0813461F49FD0082FAFD0023811F036
:107E7000013811F484E001C083E08DD089C08234E0
:107E800011F484E103C0853419F485E0A6D080C0E4
:107E9000853579F488D0E82EFF2485D0082F10E0AE
:107EA000102F00270E291F29000F111F8ED06801E7
:107EB0006FC0863521F484E090D080E0DECF843638
:107EC00009F040C070D06FD0082F6DD080E0C81688
:107ED00080E7D80618F4F601B7BEE895C0E0D1E017
:107EE00062D089930C17E1F7F0E0CF16F0E7DF06D8
:107EF00018F0F601B7BEE89568D007B600FCFDCFD4
:107F0000A601A0E0B1E02C9130E011968C91119780
:107F100090E0982F8827822B932B1296FA010C0160
:107F200087BEE89511244E5F5F4FF1E0A038BF0790
:107F300051F7F601A7BEE89507B600FCFDCF97BE46
:107F4000E89526C08437B1F42ED02DD0F82E2BD052
:107F50003CD0F601EF2C8F010F5F1F4F84911BD097
:107F6000EA94F801C1F70894C11CD11CFA94CF0C13
:107F7000D11C0EC0853739F428D08EE10CD085E9AC
:107F80000AD08FE07ACF813511F488E018D01DD067
:107F900080E101D065CF982F8091C00085FFFCCF94
:107FA0009093C60008958091C00087FFFCCF809118
:107FB000C00084FD01C0A8958091C6000895E0E648
:107FC000F0E098E1908380830895EDDF803219F02E
:107FD00088E0F5DFFFCF84E1DECF1F93182FE3DFCA
:107FE0001150E9F7F2DF1F91089580E0E8DFEE27F6
:047FF000FF270994CA
:027FFE00040479
:00000001FF
